{
  "_format": "hh-sol-artifact-1",
  "contractName": "CrossChainERC721",
  "sourceName": "contracts/CrossChainERC721.sol",
  "abi": [
    {
      "inputs": [
        {
          "internalType": "address",
          "name": "gateway_",
          "type": "address"
        },
        {
          "internalType": "address",
          "name": "gasReceiver_",
          "type": "address"
        },
        {
          "internalType": "string",
          "name": "name_",
          "type": "string"
        },
        {
          "internalType": "string",
          "name": "symbol_",
          "type": "string"
        },
        {
          "internalType": "string",
          "name": "chainName_",
          "type": "string"
        }
      ],
      "stateMutability": "nonpayable",
      "type": "constructor"
    },
    {
      "inputs": [],
      "name": "InvalidAddress",
      "type": "error"
    },
    {
      "inputs": [],
      "name": "InvalidAddressString",
      "type": "error"
    },
    {
      "inputs": [],
      "name": "NotApprovedByGateway",
      "type": "error"
    },
    {
      "anonymous": false,
      "inputs": [
        {
          "indexed": true,
          "internalType": "address",
          "name": "owner",
          "type": "address"
        },
        {
          "indexed": true,
          "internalType": "address",
          "name": "approved",
          "type": "address"
        },
        {
          "indexed": true,
          "internalType": "uint256",
          "name": "tokenId",
          "type": "uint256"
        }
      ],
      "name": "Approval",
      "type": "event"
    },
    {
      "anonymous": false,
      "inputs": [
        {
          "indexed": true,
          "internalType": "address",
          "name": "owner",
          "type": "address"
        },
        {
          "indexed": true,
          "internalType": "address",
          "name": "operator",
          "type": "address"
        },
        {
          "indexed": false,
          "internalType": "bool",
          "name": "approved",
          "type": "bool"
        }
      ],
      "name": "ApprovalForAll",
      "type": "event"
    },
    {
      "anonymous": false,
      "inputs": [
        {
          "indexed": true,
          "internalType": "address",
          "name": "receiver",
          "type": "address"
        },
        {
          "indexed": true,
          "internalType": "uint256",
          "name": "tokenId",
          "type": "uint256"
        },
        {
          "indexed": false,
          "internalType": "string",
          "name": "sourceChain",
          "type": "string"
        }
      ],
      "name": "CrossChainTransferReceived",
      "type": "event"
    },
    {
      "anonymous": false,
      "inputs": [
        {
          "indexed": true,
          "internalType": "address",
          "name": "sender",
          "type": "address"
        },
        {
          "indexed": true,
          "internalType": "uint256",
          "name": "tokenId",
          "type": "uint256"
        },
        {
          "indexed": false,
          "internalType": "string",
          "name": "destinationChain",
          "type": "string"
        },
        {
          "indexed": true,
          "internalType": "address",
          "name": "receiver",
          "type": "address"
        }
      ],
      "name": "CrossChainTransferSent",
      "type": "event"
    },
    {
      "anonymous": false,
      "inputs": [
        {
          "indexed": false,
          "internalType": "string",
          "name": "sourceChain",
          "type": "string"
        },
        {
          "indexed": false,
          "internalType": "string",
          "name": "sourceAddress",
          "type": "string"
        }
      ],
      "name": "FalseSender",
      "type": "event"
    },
    {
      "anonymous": false,
      "inputs": [
        {
          "indexed": true,
          "internalType": "address",
          "name": "from",
          "type": "address"
        },
        {
          "indexed": true,
          "internalType": "address",
          "name": "to",
          "type": "address"
        },
        {
          "indexed": true,
          "internalType": "uint256",
          "name": "tokenId",
          "type": "uint256"
        }
      ],
      "name": "Transfer",
      "type": "event"
    },
    {
      "inputs": [
        {
          "internalType": "address",
          "name": "to",
          "type": "address"
        },
        {
          "internalType": "uint256",
          "name": "tokenId",
          "type": "uint256"
        }
      ],
      "name": "approve",
      "outputs": [],
      "stateMutability": "nonpayable",
      "type": "function"
    },
    {
      "inputs": [
        {
          "internalType": "address",
          "name": "owner",
          "type": "address"
        }
      ],
      "name": "balanceOf",
      "outputs": [
        {
          "internalType": "uint256",
          "name": "",
          "type": "uint256"
        }
      ],
      "stateMutability": "view",
      "type": "function"
    },
    {
      "inputs": [],
      "name": "chainName",
      "outputs": [
        {
          "internalType": "string",
          "name": "",
          "type": "string"
        }
      ],
      "stateMutability": "view",
      "type": "function"
    },
    {
      "inputs": [
        {
          "internalType": "bytes32",
          "name": "commandId",
          "type": "bytes32"
        },
        {
          "internalType": "string",
          "name": "sourceChain",
          "type": "string"
        },
        {
          "internalType": "string",
          "name": "sourceAddress",
          "type": "string"
        },
        {
          "internalType": "bytes",
          "name": "payload",
          "type": "bytes"
        }
      ],
      "name": "execute",
      "outputs": [],
      "stateMutability": "nonpayable",
      "type": "function"
    },
    {
      "inputs": [
        {
          "internalType": "bytes32",
          "name": "commandId",
          "type": "bytes32"
        },
        {
          "internalType": "string",
          "name": "sourceChain",
          "type": "string"
        },
        {
          "internalType": "string",
          "name": "sourceAddress",
          "type": "string"
        },
        {
          "internalType": "bytes",
          "name": "payload",
          "type": "bytes"
        },
        {
          "internalType": "string",
          "name": "tokenSymbol",
          "type": "string"
        },
        {
          "internalType": "uint256",
          "name": "amount",
          "type": "uint256"
        }
      ],
      "name": "executeWithToken",
      "outputs": [],
      "stateMutability": "nonpayable",
      "type": "function"
    },
    {
      "inputs": [],
      "name": "gasReceiver",
      "outputs": [
        {
          "internalType": "contract IAxelarGasService",
          "name": "",
          "type": "address"
        }
      ],
      "stateMutability": "view",
      "type": "function"
    },
    {
      "inputs": [],
      "name": "gateway",
      "outputs": [
        {
          "internalType": "contract IAxelarGateway",
          "name": "",
          "type": "address"
        }
      ],
      "stateMutability": "view",
      "type": "function"
    },
    {
      "inputs": [
        {
          "internalType": "uint256",
          "name": "tokenId",
          "type": "uint256"
        }
      ],
      "name": "getApproved",
      "outputs": [
        {
          "internalType": "address",
          "name": "",
          "type": "address"
        }
      ],
      "stateMutability": "view",
      "type": "function"
    },
    {
      "inputs": [
        {
          "internalType": "address",
          "name": "owner",
          "type": "address"
        },
        {
          "internalType": "address",
          "name": "operator",
          "type": "address"
        }
      ],
      "name": "isApprovedForAll",
      "outputs": [
        {
          "internalType": "bool",
          "name": "",
          "type": "bool"
        }
      ],
      "stateMutability": "view",
      "type": "function"
    },
    {
      "inputs": [
        {
          "internalType": "address",
          "name": "to",
          "type": "address"
        },
        {
          "internalType": "string",
          "name": "uri",
          "type": "string"
        }
      ],
      "name": "mintNFT",
      "outputs": [],
      "stateMutability": "nonpayable",
      "type": "function"
    },
    {
      "inputs": [
        {
          "internalType": "string",
          "name": "destinationChain",
          "type": "string"
        },
        {
          "internalType": "address",
          "name": "destinationAddress",
          "type": "address"
        },
        {
          "internalType": "string",
          "name": "uri",
          "type": "string"
        }
      ],
      "name": "mintRemote",
      "outputs": [],
      "stateMutability": "payable",
      "type": "function"
    },
    {
      "inputs": [],
      "name": "minterChain",
      "outputs": [
        {
          "internalType": "string",
          "name": "",
          "type": "string"
        }
      ],
      "stateMutability": "view",
      "type": "function"
    },
    {
      "inputs": [],
      "name": "name",
      "outputs": [
        {
          "internalType": "string",
          "name": "",
          "type": "string"
        }
      ],
      "stateMutability": "view",
      "type": "function"
    },
    {
      "inputs": [
        {
          "internalType": "uint256",
          "name": "tokenId",
          "type": "uint256"
        }
      ],
      "name": "ownerOf",
      "outputs": [
        {
          "internalType": "address",
          "name": "",
          "type": "address"
        }
      ],
      "stateMutability": "view",
      "type": "function"
    },
    {
      "inputs": [
        {
          "internalType": "address",
          "name": "from",
          "type": "address"
        },
        {
          "internalType": "address",
          "name": "to",
          "type": "address"
        },
        {
          "internalType": "uint256",
          "name": "tokenId",
          "type": "uint256"
        }
      ],
      "name": "safeTransferFrom",
      "outputs": [],
      "stateMutability": "nonpayable",
      "type": "function"
    },
    {
      "inputs": [
        {
          "internalType": "address",
          "name": "from",
          "type": "address"
        },
        {
          "internalType": "address",
          "name": "to",
          "type": "address"
        },
        {
          "internalType": "uint256",
          "name": "tokenId",
          "type": "uint256"
        },
        {
          "internalType": "bytes",
          "name": "data",
          "type": "bytes"
        }
      ],
      "name": "safeTransferFrom",
      "outputs": [],
      "stateMutability": "nonpayable",
      "type": "function"
    },
    {
      "inputs": [
        {
          "internalType": "address",
          "name": "operator",
          "type": "address"
        },
        {
          "internalType": "bool",
          "name": "approved",
          "type": "bool"
        }
      ],
      "name": "setApprovalForAll",
      "outputs": [],
      "stateMutability": "nonpayable",
      "type": "function"
    },
    {
      "inputs": [
        {
          "internalType": "bytes4",
          "name": "interfaceId",
          "type": "bytes4"
        }
      ],
      "name": "supportsInterface",
      "outputs": [
        {
          "internalType": "bool",
          "name": "",
          "type": "bool"
        }
      ],
      "stateMutability": "view",
      "type": "function"
    },
    {
      "inputs": [],
      "name": "symbol",
      "outputs": [
        {
          "internalType": "string",
          "name": "",
          "type": "string"
        }
      ],
      "stateMutability": "view",
      "type": "function"
    },
    {
      "inputs": [
        {
          "internalType": "uint256",
          "name": "index",
          "type": "uint256"
        }
      ],
      "name": "tokenByIndex",
      "outputs": [
        {
          "internalType": "uint256",
          "name": "",
          "type": "uint256"
        }
      ],
      "stateMutability": "view",
      "type": "function"
    },
    {
      "inputs": [
        {
          "internalType": "address",
          "name": "owner",
          "type": "address"
        },
        {
          "internalType": "uint256",
          "name": "index",
          "type": "uint256"
        }
      ],
      "name": "tokenOfOwnerByIndex",
      "outputs": [
        {
          "internalType": "uint256",
          "name": "",
          "type": "uint256"
        }
      ],
      "stateMutability": "view",
      "type": "function"
    },
    {
      "inputs": [
        {
          "internalType": "uint256",
          "name": "tokenId",
          "type": "uint256"
        }
      ],
      "name": "tokenURI",
      "outputs": [
        {
          "internalType": "string",
          "name": "",
          "type": "string"
        }
      ],
      "stateMutability": "view",
      "type": "function"
    },
    {
      "inputs": [],
      "name": "totalSupply",
      "outputs": [
        {
          "internalType": "uint256",
          "name": "",
          "type": "uint256"
        }
      ],
      "stateMutability": "view",
      "type": "function"
    },
    {
      "inputs": [
        {
          "internalType": "address",
          "name": "from",
          "type": "address"
        },
        {
          "internalType": "address",
          "name": "to",
          "type": "address"
        },
        {
          "internalType": "uint256",
          "name": "tokenId",
          "type": "uint256"
        }
      ],
      "name": "transferFrom",
      "outputs": [],
      "stateMutability": "nonpayable",
      "type": "function"
    },
    {
      "inputs": [
        {
          "internalType": "string",
          "name": "destinationChain",
          "type": "string"
        },
        {
          "internalType": "address",
          "name": "destinationAddress",
          "type": "address"
        },
        {
          "internalType": "uint256",
          "name": "tokenId",
          "type": "uint256"
        }
      ],
      "name": "transferRemote",
      "outputs": [],
      "stateMutability": "payable",
      "type": "function"
    }
  ],
  "bytecode": "0x60c06040526040518060400160405280600881526020017f6d6f6f6e6265616d000000000000000000000000000000000000000000000000815250600c90816200004a91906200040e565b503480156200005857600080fd5b5060405162005bb938038062005bb983398181016040528101906200007e9190620006be565b828286600073ffffffffffffffffffffffffffffffffffffffff168173ffffffffffffffffffffffffffffffffffffffff1603620000e8576040517fe6c4247b00000000000000000000000000000000000000000000000000000000815260040160405180910390fd5b8073ffffffffffffffffffffffffffffffffffffffff1660808173ffffffffffffffffffffffffffffffffffffffff16815250505081600090816200012e91906200040e565b5080600190816200014091906200040e565b5050508373ffffffffffffffffffffffffffffffffffffffff1660a08173ffffffffffffffffffffffffffffffffffffffff168152505080600b90816200018891906200040e565b505050505050620007a3565b600081519050919050565b7f4e487b7100000000000000000000000000000000000000000000000000000000600052604160045260246000fd5b7f4e487b7100000000000000000000000000000000000000000000000000000000600052602260045260246000fd5b600060028204905060018216806200021657607f821691505b6020821081036200022c576200022b620001ce565b5b50919050565b60008190508160005260206000209050919050565b60006020601f8301049050919050565b600082821b905092915050565b600060088302620002967fffffffffffffffffffffffffffffffffffffffffffffffffffffffffffffffff8262000257565b620002a2868362000257565b95508019841693508086168417925050509392505050565b6000819050919050565b6000819050919050565b6000620002ef620002e9620002e384620002ba565b620002c4565b620002ba565b9050919050565b6000819050919050565b6200030b83620002ce565b620003236200031a82620002f6565b84845462000264565b825550505050565b600090565b6200033a6200032b565b6200034781848462000300565b505050565b5b818110156200036f576200036360008262000330565b6001810190506200034d565b5050565b601f821115620003be57620003888162000232565b620003938462000247565b81016020851015620003a3578190505b620003bb620003b28562000247565b8301826200034c565b50505b505050565b600082821c905092915050565b6000620003e360001984600802620003c3565b1980831691505092915050565b6000620003fe8383620003d0565b9150826002028217905092915050565b620004198262000194565b67ffffffffffffffff8111156200043557620004346200019f565b5b620004418254620001fd565b6200044e82828562000373565b600060209050601f83116001811462000486576000841562000471578287015190505b6200047d8582620003f0565b865550620004ed565b601f198416620004968662000232565b60005b82811015620004c05784890151825560018201915060208501945060208101905062000499565b86831015620004e05784890151620004dc601f891682620003d0565b8355505b6001600288020188555050505b505050505050565b6000604051905090565b600080fd5b600080fd5b600073ffffffffffffffffffffffffffffffffffffffff82169050919050565b6000620005368262000509565b9050919050565b620005488162000529565b81146200055457600080fd5b50565b60008151905062000568816200053d565b92915050565b600080fd5b600080fd5b6000601f19601f8301169050919050565b620005948262000578565b810181811067ffffffffffffffff82111715620005b657620005b56200019f565b5b80604052505050565b6000620005cb620004f5565b9050620005d9828262000589565b919050565b600067ffffffffffffffff821115620005fc57620005fb6200019f565b5b620006078262000578565b9050602081019050919050565b60005b838110156200063457808201518184015260208101905062000617565b60008484015250505050565b6000620006576200065184620005de565b620005bf565b90508281526020810184848401111562000676576200067562000573565b5b6200068384828562000614565b509392505050565b600082601f830112620006a357620006a26200056e565b5b8151620006b584826020860162000640565b91505092915050565b600080600080600060a08688031215620006dd57620006dc620004ff565b5b6000620006ed8882890162000557565b9550506020620007008882890162000557565b945050604086015167ffffffffffffffff81111562000724576200072362000504565b5b62000732888289016200068b565b935050606086015167ffffffffffffffff81111562000756576200075562000504565b5b62000764888289016200068b565b925050608086015167ffffffffffffffff81111562000788576200078762000504565b5b62000796888289016200068b565b9150509295509295909350565b60805160a0516153c6620007f360003960008181610cee01528181610fc401526111e90152600081816108030152818161085001528181610b1f01528181610d85015261128001526153c66000f3fe6080604052600436106101665760003560e01c80634f6ccce7116100d157806398f0fc7c1161008a578063b88d4fde11610064578063b88d4fde14610534578063c87b56dd1461055d578063e985e9c51461059a578063eacabe14146105d757610166565b806398f0fc7c146104c4578063a22cb465146104ef578063b62d14bb1461051857610166565b80634f6ccce71461039b57806355d55dc1146103d85780636352211e146103f457806370a082311461043157806380d14b4a1461046e57806395d89b411461049957610166565b80631a98b2e0116101235780631a98b2e01461028f5780631c93b03a146102b857806323b872dd146102e35780632f745c591461030c57806342842e0e14610349578063491606581461037257610166565b806301ffc9a71461016b57806306fdde03146101a8578063081812fc146101d3578063095ea7b314610210578063116191b61461023957806318160ddd14610264575b600080fd5b34801561017757600080fd5b50610192600480360381019061018d919061352c565b610600565b60405161019f9190613574565b60405180910390f35b3480156101b457600080fd5b506101bd610612565b6040516101ca919061361f565b60405180910390f35b3480156101df57600080fd5b506101fa60048036038101906101f59190613677565b6106a4565b60405161020791906136e5565b60405180910390f35b34801561021c57600080fd5b506102376004803603810190610232919061372c565b6106ea565b005b34801561024557600080fd5b5061024e610801565b60405161025b91906137cb565b60405180910390f35b34801561027057600080fd5b50610279610825565b60405161028691906137f5565b60405180910390f35b34801561029b57600080fd5b506102b660048036038101906102b19190613901565b610832565b005b3480156102c457600080fd5b506102cd61094e565b6040516102da919061361f565b60405180910390f35b3480156102ef57600080fd5b5061030a60048036038101906103059190613a11565b6109dc565b005b34801561031857600080fd5b50610333600480360381019061032e919061372c565b610a3c565b60405161034091906137f5565b60405180910390f35b34801561035557600080fd5b50610370600480360381019061036b9190613a11565b610ae1565b005b34801561037e57600080fd5b5061039960048036038101906103949190613a64565b610b01565b005b3480156103a757600080fd5b506103c260048036038101906103bd9190613677565b610c11565b6040516103cf91906137f5565b60405180910390f35b6103f260048036038101906103ed9190613b2d565b610c82565b005b34801561040057600080fd5b5061041b60048036038101906104169190613677565b610e85565b60405161042891906136e5565b60405180910390f35b34801561043d57600080fd5b5061045860048036038101906104539190613ba1565b610f0b565b60405161046591906137f5565b60405180910390f35b34801561047a57600080fd5b50610483610fc2565b6040516104909190613bef565b60405180910390f35b3480156104a557600080fd5b506104ae610fe6565b6040516104bb919061361f565b60405180910390f35b3480156104d057600080fd5b506104d9611078565b6040516104e6919061361f565b60405180910390f35b3480156104fb57600080fd5b5061051660048036038101906105119190613c36565b611106565b005b610532600480360381019061052d9190613c76565b61111c565b005b34801561054057600080fd5b5061055b60048036038101906105569190613e3b565b611399565b005b34801561056957600080fd5b50610584600480360381019061057f9190613677565b6113fb565b604051610591919061361f565b60405180910390f35b3480156105a657600080fd5b506105c160048036038101906105bc9190613ebe565b61140d565b6040516105ce9190613574565b60405180910390f35b3480156105e357600080fd5b506105fe60048036038101906105f99190613f9f565b6114a1565b005b600061060b82611547565b9050919050565b6060600080546106219061402a565b80601f016020809104026020016040519081016040528092919081815260200182805461064d9061402a565b801561069a5780601f1061066f5761010080835404028352916020019161069a565b820191906000526020600020905b81548152906001019060200180831161067d57829003601f168201915b5050505050905090565b60006106af826115c1565b6004600083815260200190815260200160002060009054906101000a900473ffffffffffffffffffffffffffffffffffffffff169050919050565b60006106f582610e85565b90508073ffffffffffffffffffffffffffffffffffffffff168373ffffffffffffffffffffffffffffffffffffffff1603610765576040517f08c379a000000000000000000000000000000000000000000000000000000000815260040161075c906140cd565b60405180910390fd5b8073ffffffffffffffffffffffffffffffffffffffff1661078461160c565b73ffffffffffffffffffffffffffffffffffffffff1614806107b357506107b2816107ad61160c565b61140d565b5b6107f2576040517f08c379a00000000000000000000000000000000000000000000000000000000081526004016107e99061415f565b60405180910390fd5b6107fc8383611614565b505050565b7f000000000000000000000000000000000000000000000000000000000000000081565b6000600880549050905090565b600085856040516108449291906141af565b604051809103902090507f000000000000000000000000000000000000000000000000000000000000000073ffffffffffffffffffffffffffffffffffffffff16631876eed98c8c8c8c8c878b8b8b6040518a63ffffffff1660e01b81526004016108b799989796959493929190614204565b6020604051808303816000875af11580156108d6573d6000803e3d6000fd5b505050506040513d601f19601f820116820180604052508101906108fa9190614295565b610930576040517f500c44b400000000000000000000000000000000000000000000000000000000815260040160405180910390fd5b6109418a8a8a8a8a8a8a8a8a6116cd565b5050505050505050505050565b600b805461095b9061402a565b80601f01602080910402602001604051908101604052809291908181526020018280546109879061402a565b80156109d45780601f106109a9576101008083540402835291602001916109d4565b820191906000526020600020905b8154815290600101906020018083116109b757829003601f168201915b505050505081565b6109ed6109e761160c565b826116d8565b610a2c576040517f08c379a0000000000000000000000000000000000000000000000000000000008152600401610a2390614334565b60405180910390fd5b610a3783838361176d565b505050565b6000610a4783610f0b565b8210610a88576040517f08c379a0000000000000000000000000000000000000000000000000000000008152600401610a7f906143c6565b60405180910390fd5b600660008473ffffffffffffffffffffffffffffffffffffffff1673ffffffffffffffffffffffffffffffffffffffff168152602001908152602001600020600083815260200190815260200160002054905092915050565b610afc83838360405180602001604052806000815250611399565b505050565b60008282604051610b139291906141af565b604051809103902090507f000000000000000000000000000000000000000000000000000000000000000073ffffffffffffffffffffffffffffffffffffffff16635f6970c38989898989876040518763ffffffff1660e01b8152600401610b80969594939291906143e6565b6020604051808303816000875af1158015610b9f573d6000803e3d6000fd5b505050506040513d601f19601f82011682018060405250810190610bc39190614295565b610bf9576040517f500c44b400000000000000000000000000000000000000000000000000000000815260040160405180910390fd5b610c07878787878787611a66565b5050505050505050565b6000610c1b610825565b8210610c5c576040517f08c379a0000000000000000000000000000000000000000000000000000000008152600401610c53906144af565b60405180910390fd5b60088281548110610c7057610c6f6144cf565b5b90600052602060002001549050919050565b6000610c8d826113fb565b9050610c9882611bb2565b6000838383604051602001610caf939291906144fe565b60405160208183030381529060405290506000610ce13073ffffffffffffffffffffffffffffffffffffffff16611bbe565b90506000341115610d83577f000000000000000000000000000000000000000000000000000000000000000073ffffffffffffffffffffffffffffffffffffffff16630c93e3bb34308a8a8688336040518863ffffffff1660e01b8152600401610d5096959493929190614591565b6000604051808303818588803b158015610d6957600080fd5b505af1158015610d7d573d6000803e3d6000fd5b50505050505b7f000000000000000000000000000000000000000000000000000000000000000073ffffffffffffffffffffffffffffffffffffffff16631c92115f888884866040518563ffffffff1660e01b8152600401610de294939291906145fb565b600060405180830381600087803b158015610dfc57600080fd5b505af1158015610e10573d6000803e3d6000fd5b505050508473ffffffffffffffffffffffffffffffffffffffff16843373ffffffffffffffffffffffffffffffffffffffff167fbbae34f6c202769c9e38bff6ec28541162f077d5b38132f022daf8babf33ba988a8a604051610e74929190614649565b60405180910390a450505050505050565b600080610e9183611ee1565b9050600073ffffffffffffffffffffffffffffffffffffffff168173ffffffffffffffffffffffffffffffffffffffff1603610f02576040517f08c379a0000000000000000000000000000000000000000000000000000000008152600401610ef9906146b9565b60405180910390fd5b80915050919050565b60008073ffffffffffffffffffffffffffffffffffffffff168273ffffffffffffffffffffffffffffffffffffffff1603610f7b576040517f08c379a0000000000000000000000000000000000000000000000000000000008152600401610f729061474b565b60405180910390fd5b600360008373ffffffffffffffffffffffffffffffffffffffff1673ffffffffffffffffffffffffffffffffffffffff168152602001908152602001600020549050919050565b7f000000000000000000000000000000000000000000000000000000000000000081565b606060018054610ff59061402a565b80601f01602080910402602001604051908101604052809291908181526020018280546110219061402a565b801561106e5780601f106110435761010080835404028352916020019161106e565b820191906000526020600020905b81548152906001019060200180831161105157829003601f168201915b5050505050905090565b600c80546110859061402a565b80601f01602080910402602001604051908101604052809291908181526020018280546110b19061402a565b80156110fe5780601f106110d3576101008083540402835291602001916110fe565b820191906000526020600020905b8154815290600101906020018083116110e157829003601f168201915b505050505081565b61111861111161160c565b8383611f1e565b5050565b600c60405161112b9190614803565b6040518091039020600b6040516111429190614803565b60405180910390201461118a576040517f08c379a00000000000000000000000000000000000000000000000000000000081526004016111819061488c565b60405180910390fd5b6000600d5490506000848285856040516020016111aa94939291906148ac565b604051602081830303815290604052905060006111dc3073ffffffffffffffffffffffffffffffffffffffff16611bbe565b9050600034111561127e577f000000000000000000000000000000000000000000000000000000000000000073ffffffffffffffffffffffffffffffffffffffff16630c93e3bb34308b8b8688336040518863ffffffff1660e01b815260040161124b96959493929190614591565b6000604051808303818588803b15801561126457600080fd5b505af1158015611278573d6000803e3d6000fd5b50505050505b7f000000000000000000000000000000000000000000000000000000000000000073ffffffffffffffffffffffffffffffffffffffff16631c92115f898984866040518563ffffffff1660e01b81526004016112dd94939291906145fb565b600060405180830381600087803b1580156112f757600080fd5b505af115801561130b573d6000803e3d6000fd5b50505050600d60008154809291906113229061491b565b91905055508573ffffffffffffffffffffffffffffffffffffffff16833373ffffffffffffffffffffffffffffffffffffffff167fbbae34f6c202769c9e38bff6ec28541162f077d5b38132f022daf8babf33ba988b8b604051611387929190614649565b60405180910390a45050505050505050565b6113aa6113a461160c565b836116d8565b6113e9576040517f08c379a00000000000000000000000000000000000000000000000000000000081526004016113e090614334565b60405180910390fd5b6113f58484848461208a565b50505050565b6060611406826120e6565b9050919050565b6000600560008473ffffffffffffffffffffffffffffffffffffffff1673ffffffffffffffffffffffffffffffffffffffff16815260200190815260200160002060008373ffffffffffffffffffffffffffffffffffffffff1673ffffffffffffffffffffffffffffffffffffffff16815260200190815260200160002060009054906101000a900460ff16905092915050565b600c6040516114b09190614803565b6040518091039020600b6040516114c79190614803565b60405180910390201461150f576040517f08c379a00000000000000000000000000000000000000000000000000000000081526004016115069061488c565b60405180910390fd5b6000600d54905061152083826121f8565b61152a8183612216565b600d600081548092919061153d9061491b565b9190505550505050565b60007f780e9d63000000000000000000000000000000000000000000000000000000007bffffffffffffffffffffffffffffffffffffffffffffffffffffffff1916827bffffffffffffffffffffffffffffffffffffffffffffffffffffffff191614806115ba57506115b982612283565b5b9050919050565b6115ca81612365565b611609576040517f08c379a0000000000000000000000000000000000000000000000000000000008152600401611600906146b9565b60405180910390fd5b50565b600033905090565b816004600083815260200190815260200160002060006101000a81548173ffffffffffffffffffffffffffffffffffffffff021916908373ffffffffffffffffffffffffffffffffffffffff160217905550808273ffffffffffffffffffffffffffffffffffffffff1661168783610e85565b73ffffffffffffffffffffffffffffffffffffffff167f8c5be1e5ebec7d5bd14f71427d1e84f3dd0314c0f7b2291e5b200ac8c7c3b92560405160405180910390a45050565b505050505050505050565b6000806116e483610e85565b90508073ffffffffffffffffffffffffffffffffffffffff168473ffffffffffffffffffffffffffffffffffffffff1614806117265750611725818561140d565b5b8061176457508373ffffffffffffffffffffffffffffffffffffffff1661174c846106a4565b73ffffffffffffffffffffffffffffffffffffffff16145b91505092915050565b8273ffffffffffffffffffffffffffffffffffffffff1661178d82610e85565b73ffffffffffffffffffffffffffffffffffffffff16146117e3576040517f08c379a00000000000000000000000000000000000000000000000000000000081526004016117da906149d5565b60405180910390fd5b600073ffffffffffffffffffffffffffffffffffffffff168273ffffffffffffffffffffffffffffffffffffffff1603611852576040517f08c379a000000000000000000000000000000000000000000000000000000000815260040161184990614a67565b60405180910390fd5b61185f83838360016123a6565b8273ffffffffffffffffffffffffffffffffffffffff1661187f82610e85565b73ffffffffffffffffffffffffffffffffffffffff16146118d5576040517f08c379a00000000000000000000000000000000000000000000000000000000081526004016118cc906149d5565b60405180910390fd5b6004600082815260200190815260200160002060006101000a81549073ffffffffffffffffffffffffffffffffffffffff02191690556001600360008573ffffffffffffffffffffffffffffffffffffffff1673ffffffffffffffffffffffffffffffffffffffff168152602001908152602001600020600082825403925050819055506001600360008473ffffffffffffffffffffffffffffffffffffffff1673ffffffffffffffffffffffffffffffffffffffff16815260200190815260200160002060008282540192505081905550816002600083815260200190815260200160002060006101000a81548173ffffffffffffffffffffffffffffffffffffffff021916908373ffffffffffffffffffffffffffffffffffffffff160217905550808273ffffffffffffffffffffffffffffffffffffffff168473ffffffffffffffffffffffffffffffffffffffff167fddf252ad1be2c89b69c2b068fc378daa952ba7f163c4a11628f55a4df523b3ef60405160405180910390a4611a6183838360016123b8565b505050565b3073ffffffffffffffffffffffffffffffffffffffff16611aca85858080601f016020809104026020016040519081016040528093929190818152602001838380828437600081840152601f19601f820116905080830192505050505050506123be565b73ffffffffffffffffffffffffffffffffffffffff1614611b27577f03daa0914739c74a32f06993c062b0ec6a2c0b8a39b5a0b8bff2a12ef55b9dc584848686604051611b1a9493929190614a87565b60405180910390a1611baa565b60008060008484810190611b3b9190614b00565b925092509250611b4b83836121f8565b611b558282612216565b818373ffffffffffffffffffffffffffffffffffffffff167fcc35fd55b412e626df76c3076a8697f48fb2bb5471e04b2c03ff82060466b1a58b8b604051611b9e929190614649565b60405180910390a35050505b505050505050565b611bbb8161260c565b50565b6060600082604051602001611bd39190614bb7565b604051602081830303815290604052905060008151905060006040518060400160405280601081526020017f30313233343536373839616263646566000000000000000000000000000000008152509050600060028451611c349190614bd2565b6002611c409190614c2c565b67ffffffffffffffff811115611c5957611c58613d10565b5b6040519080825280601f01601f191660200182016040528015611c8b5781602001600182028036833780820191505090505b5090507f300000000000000000000000000000000000000000000000000000000000000081600081518110611cc357611cc26144cf565b5b60200101907effffffffffffffffffffffffffffffffffffffffffffffffffffffffffffff1916908160001a9053507f780000000000000000000000000000000000000000000000000000000000000081600181518110611d2757611d266144cf565b5b60200101907effffffffffffffffffffffffffffffffffffffffffffffffffffffffffffff1916908160001a90535060005b83811015611ed457826004868381518110611d7757611d766144cf565b5b602001015160f81c60f81b7effffffffffffffffffffffffffffffffffffffffffffffffffffffffffffff1916901c60f81c60ff1681518110611dbd57611dbc6144cf565b5b602001015160f81c60f81b82600283611dd69190614bd2565b6002611de29190614c2c565b81518110611df357611df26144cf565b5b60200101907effffffffffffffffffffffffffffffffffffffffffffffffffffffffffffff1916908160001a90535082600f60f81b868381518110611e3b57611e3a6144cf565b5b602001015160f81c60f81b1660f81c60ff1681518110611e5e57611e5d6144cf565b5b602001015160f81c60f81b82600283611e779190614bd2565b6003611e839190614c2c565b81518110611e9457611e936144cf565b5b60200101907effffffffffffffffffffffffffffffffffffffffffffffffffffffffffffff1916908160001a90535080611ecd9061491b565b9050611d59565b5080945050505050919050565b60006002600083815260200190815260200160002060009054906101000a900473ffffffffffffffffffffffffffffffffffffffff169050919050565b8173ffffffffffffffffffffffffffffffffffffffff168373ffffffffffffffffffffffffffffffffffffffff1603611f8c576040517f08c379a0000000000000000000000000000000000000000000000000000000008152600401611f8390614cac565b60405180910390fd5b80600560008573ffffffffffffffffffffffffffffffffffffffff1673ffffffffffffffffffffffffffffffffffffffff16815260200190815260200160002060008473ffffffffffffffffffffffffffffffffffffffff1673ffffffffffffffffffffffffffffffffffffffff16815260200190815260200160002060006101000a81548160ff0219169083151502179055508173ffffffffffffffffffffffffffffffffffffffff168373ffffffffffffffffffffffffffffffffffffffff167f17307eab39ab6107e8899845ad3d59bd9653f200f220920489ca2b5937696c318360405161207d9190613574565b60405180910390a3505050565b61209584848461176d565b6120a18484848461265f565b6120e0576040517f08c379a00000000000000000000000000000000000000000000000000000000081526004016120d790614d3e565b60405180910390fd5b50505050565b60606120f1826115c1565b6000600a600084815260200190815260200160002080546121119061402a565b80601f016020809104026020016040519081016040528092919081815260200182805461213d9061402a565b801561218a5780601f1061215f5761010080835404028352916020019161218a565b820191906000526020600020905b81548152906001019060200180831161216d57829003601f168201915b50505050509050600061219b6127e6565b905060008151036121b05781925050506121f3565b6000825111156121e55780826040516020016121cd929190614d9a565b604051602081830303815290604052925050506121f3565b6121ee846127fd565b925050505b919050565b612212828260405180602001604052806000815250612865565b5050565b61221f82612365565b61225e576040517f08c379a000000000000000000000000000000000000000000000000000000000815260040161225590614e30565b60405180910390fd5b80600a6000848152602001908152602001600020908161227e9190614ff2565b505050565b60007f80ac58cd000000000000000000000000000000000000000000000000000000007bffffffffffffffffffffffffffffffffffffffffffffffffffffffff1916827bffffffffffffffffffffffffffffffffffffffffffffffffffffffff1916148061234e57507f5b5e139f000000000000000000000000000000000000000000000000000000007bffffffffffffffffffffffffffffffffffffffffffffffffffffffff1916827bffffffffffffffffffffffffffffffffffffffffffffffffffffffff1916145b8061235e575061235d826128c0565b5b9050919050565b60008073ffffffffffffffffffffffffffffffffffffffff1661238783611ee1565b73ffffffffffffffffffffffffffffffffffffffff1614159050919050565b6123b28484848461292a565b50505050565b50505050565b600080829050600080602a835114158061243857507f300000000000000000000000000000000000000000000000000000000000000083600081518110612408576124076144cf565b5b602001015160f81c60f81b7effffffffffffffffffffffffffffffffffffffffffffffffffffffffffffff191614155b806124a357507f780000000000000000000000000000000000000000000000000000000000000083600181518110612473576124726144cf565b5b602001015160f81c60f81b7effffffffffffffffffffffffffffffffffffffffffffffffffffffffffffff191614155b156124da576040517fdf48f19e00000000000000000000000000000000000000000000000000000000815260040160405180910390fd5b6000600290505b602a811015612600578381815181106124fd576124fc6144cf565b5b602001015160f81c60f81b60f81c915060618260ff1610158015612525575060668260ff1611155b1561253e5760578261253791906150d1565b91506125d4565b60418260ff1610158015612556575060468260ff1611155b1561256f5760378261256891906150d1565b91506125d3565b60308260ff1610158015612587575060398260ff1611155b156125a05760308261259991906150d1565b91506125d2565b6040517fdf48f19e00000000000000000000000000000000000000000000000000000000815260040160405180910390fd5b5b5b60028160296125e39190615106565b901b8260ff16901b83179250806125f99061491b565b90506124e1565b50819350505050919050565b61261581612a88565b6000600a600083815260200190815260200160002080546126359061402a565b90501461265c57600a6000828152602001908152602001600020600061265b9190613463565b5b50565b60006126808473ffffffffffffffffffffffffffffffffffffffff16612bd6565b156127d9578373ffffffffffffffffffffffffffffffffffffffff1663150b7a026126a961160c565b8786866040518563ffffffff1660e01b81526004016126cb949392919061513a565b6020604051808303816000875af192505050801561270757506040513d601f19601f82011682018060405250810190612704919061519b565b60015b612789573d8060008114612737576040519150601f19603f3d011682016040523d82523d6000602084013e61273c565b606091505b506000815103612781576040517f08c379a000000000000000000000000000000000000000000000000000000000815260040161277890614d3e565b60405180910390fd5b805181602001fd5b63150b7a0260e01b7bffffffffffffffffffffffffffffffffffffffffffffffffffffffff1916817bffffffffffffffffffffffffffffffffffffffffffffffffffffffff1916149150506127de565b600190505b949350505050565b606060405180602001604052806000815250905090565b6060612808826115c1565b60006128126127e6565b90506000815111612832576040518060200160405280600081525061285d565b8061283c84612bf9565b60405160200161284d929190614d9a565b6040516020818303038152906040525b915050919050565b61286f8383612cc7565b61287c600084848461265f565b6128bb576040517f08c379a00000000000000000000000000000000000000000000000000000000081526004016128b290614d3e565b60405180910390fd5b505050565b60007f01ffc9a7000000000000000000000000000000000000000000000000000000007bffffffffffffffffffffffffffffffffffffffffffffffffffffffff1916827bffffffffffffffffffffffffffffffffffffffffffffffffffffffff1916149050919050565b61293684848484612ee4565b600181111561297a576040517f08c379a00000000000000000000000000000000000000000000000000000000081526004016129719061523a565b60405180910390fd5b6000829050600073ffffffffffffffffffffffffffffffffffffffff168573ffffffffffffffffffffffffffffffffffffffff16036129c1576129bc8161300a565b612a00565b8373ffffffffffffffffffffffffffffffffffffffff168573ffffffffffffffffffffffffffffffffffffffff16146129ff576129fe8582613053565b5b5b600073ffffffffffffffffffffffffffffffffffffffff168473ffffffffffffffffffffffffffffffffffffffff1603612a4257612a3d816131c0565b612a81565b8473ffffffffffffffffffffffffffffffffffffffff168473ffffffffffffffffffffffffffffffffffffffff1614612a8057612a7f8482613291565b5b5b5050505050565b6000612a9382610e85565b9050612aa38160008460016123a6565b612aac82610e85565b90506004600083815260200190815260200160002060006101000a81549073ffffffffffffffffffffffffffffffffffffffff02191690556001600360008373ffffffffffffffffffffffffffffffffffffffff1673ffffffffffffffffffffffffffffffffffffffff168152602001908152602001600020600082825403925050819055506002600083815260200190815260200160002060006101000a81549073ffffffffffffffffffffffffffffffffffffffff021916905581600073ffffffffffffffffffffffffffffffffffffffff168273ffffffffffffffffffffffffffffffffffffffff167fddf252ad1be2c89b69c2b068fc378daa952ba7f163c4a11628f55a4df523b3ef60405160405180910390a4612bd28160008460016123b8565b5050565b6000808273ffffffffffffffffffffffffffffffffffffffff163b119050919050565b606060006001612c0884613310565b01905060008167ffffffffffffffff811115612c2757612c26613d10565b5b6040519080825280601f01601f191660200182016040528015612c595781602001600182028036833780820191505090505b509050600082602001820190505b600115612cbc578080600190039150507f3031323334353637383961626364656600000000000000000000000000000000600a86061a8153600a8581612cb057612caf61525a565b5b04945060008503612c67575b819350505050919050565b600073ffffffffffffffffffffffffffffffffffffffff168273ffffffffffffffffffffffffffffffffffffffff1603612d36576040517f08c379a0000000000000000000000000000000000000000000000000000000008152600401612d2d906152d5565b60405180910390fd5b612d3f81612365565b15612d7f576040517f08c379a0000000000000000000000000000000000000000000000000000000008152600401612d7690615341565b60405180910390fd5b612d8d6000838360016123a6565b612d9681612365565b15612dd6576040517f08c379a0000000000000000000000000000000000000000000000000000000008152600401612dcd90615341565b60405180910390fd5b6001600360008473ffffffffffffffffffffffffffffffffffffffff1673ffffffffffffffffffffffffffffffffffffffff16815260200190815260200160002060008282540192505081905550816002600083815260200190815260200160002060006101000a81548173ffffffffffffffffffffffffffffffffffffffff021916908373ffffffffffffffffffffffffffffffffffffffff160217905550808273ffffffffffffffffffffffffffffffffffffffff16600073ffffffffffffffffffffffffffffffffffffffff167fddf252ad1be2c89b69c2b068fc378daa952ba7f163c4a11628f55a4df523b3ef60405160405180910390a4612ee06000838360016123b8565b5050565b600181111561300457600073ffffffffffffffffffffffffffffffffffffffff168473ffffffffffffffffffffffffffffffffffffffff1614612f785780600360008673ffffffffffffffffffffffffffffffffffffffff1673ffffffffffffffffffffffffffffffffffffffff1681526020019081526020016000206000828254612f709190615106565b925050819055505b600073ffffffffffffffffffffffffffffffffffffffff168373ffffffffffffffffffffffffffffffffffffffff16146130035780600360008573ffffffffffffffffffffffffffffffffffffffff1673ffffffffffffffffffffffffffffffffffffffff1681526020019081526020016000206000828254612ffb9190614c2c565b925050819055505b5b50505050565b6008805490506009600083815260200190815260200160002081905550600881908060018154018082558091505060019003906000526020600020016000909190919091505550565b6000600161306084610f0b565b61306a9190615106565b905060006007600084815260200190815260200160002054905081811461314f576000600660008673ffffffffffffffffffffffffffffffffffffffff1673ffffffffffffffffffffffffffffffffffffffff168152602001908152602001600020600084815260200190815260200160002054905080600660008773ffffffffffffffffffffffffffffffffffffffff1673ffffffffffffffffffffffffffffffffffffffff168152602001908152602001600020600084815260200190815260200160002081905550816007600083815260200190815260200160002081905550505b6007600084815260200190815260200160002060009055600660008573ffffffffffffffffffffffffffffffffffffffff1673ffffffffffffffffffffffffffffffffffffffff16815260200190815260200160002060008381526020019081526020016000206000905550505050565b600060016008805490506131d49190615106565b9050600060096000848152602001908152602001600020549050600060088381548110613204576132036144cf565b5b906000526020600020015490508060088381548110613226576132256144cf565b5b90600052602060002001819055508160096000838152602001908152602001600020819055506009600085815260200190815260200160002060009055600880548061327557613274615361565b5b6001900381819060005260206000200160009055905550505050565b600061329c83610f0b565b905081600660008573ffffffffffffffffffffffffffffffffffffffff1673ffffffffffffffffffffffffffffffffffffffff168152602001908152602001600020600083815260200190815260200160002081905550806007600084815260200190815260200160002081905550505050565b600080600090507a184f03e93ff9f4daa797ed6e38ed64bf6a1f010000000000000000831061336e577a184f03e93ff9f4daa797ed6e38ed64bf6a1f01000000000000000083816133645761336361525a565b5b0492506040810190505b6d04ee2d6d415b85acef810000000083106133ab576d04ee2d6d415b85acef810000000083816133a1576133a061525a565b5b0492506020810190505b662386f26fc1000083106133da57662386f26fc1000083816133d0576133cf61525a565b5b0492506010810190505b6305f5e1008310613403576305f5e10083816133f9576133f861525a565b5b0492506008810190505b612710831061342857612710838161341e5761341d61525a565b5b0492506004810190505b6064831061344b57606483816134415761344061525a565b5b0492506002810190505b600a831061345a576001810190505b80915050919050565b50805461346f9061402a565b6000825580601f1061348157506134a0565b601f01602090049060005260206000209081019061349f91906134a3565b5b50565b5b808211156134bc5760008160009055506001016134a4565b5090565b6000604051905090565b600080fd5b600080fd5b60007fffffffff0000000000000000000000000000000000000000000000000000000082169050919050565b613509816134d4565b811461351457600080fd5b50565b60008135905061352681613500565b92915050565b600060208284031215613542576135416134ca565b5b600061355084828501613517565b91505092915050565b60008115159050919050565b61356e81613559565b82525050565b60006020820190506135896000830184613565565b92915050565b600081519050919050565b600082825260208201905092915050565b60005b838110156135c95780820151818401526020810190506135ae565b60008484015250505050565b6000601f19601f8301169050919050565b60006135f18261358f565b6135fb818561359a565b935061360b8185602086016135ab565b613614816135d5565b840191505092915050565b6000602082019050818103600083015261363981846135e6565b905092915050565b6000819050919050565b61365481613641565b811461365f57600080fd5b50565b6000813590506136718161364b565b92915050565b60006020828403121561368d5761368c6134ca565b5b600061369b84828501613662565b91505092915050565b600073ffffffffffffffffffffffffffffffffffffffff82169050919050565b60006136cf826136a4565b9050919050565b6136df816136c4565b82525050565b60006020820190506136fa60008301846136d6565b92915050565b613709816136c4565b811461371457600080fd5b50565b60008135905061372681613700565b92915050565b60008060408385031215613743576137426134ca565b5b600061375185828601613717565b925050602061376285828601613662565b9150509250929050565b6000819050919050565b600061379161378c613787846136a4565b61376c565b6136a4565b9050919050565b60006137a382613776565b9050919050565b60006137b582613798565b9050919050565b6137c5816137aa565b82525050565b60006020820190506137e060008301846137bc565b92915050565b6137ef81613641565b82525050565b600060208201905061380a60008301846137e6565b92915050565b6000819050919050565b61382381613810565b811461382e57600080fd5b50565b6000813590506138408161381a565b92915050565b600080fd5b600080fd5b600080fd5b60008083601f84011261386b5761386a613846565b5b8235905067ffffffffffffffff8111156138885761388761384b565b5b6020830191508360018202830111156138a4576138a3613850565b5b9250929050565b60008083601f8401126138c1576138c0613846565b5b8235905067ffffffffffffffff8111156138de576138dd61384b565b5b6020830191508360018202830111156138fa576138f9613850565b5b9250929050565b60008060008060008060008060008060c08b8d031215613924576139236134ca565b5b60006139328d828e01613831565b9a505060208b013567ffffffffffffffff811115613953576139526134cf565b5b61395f8d828e01613855565b995099505060408b013567ffffffffffffffff811115613982576139816134cf565b5b61398e8d828e01613855565b975097505060608b013567ffffffffffffffff8111156139b1576139b06134cf565b5b6139bd8d828e016138ab565b955095505060808b013567ffffffffffffffff8111156139e0576139df6134cf565b5b6139ec8d828e01613855565b935093505060a06139ff8d828e01613662565b9150509295989b9194979a5092959850565b600080600060608486031215613a2a57613a296134ca565b5b6000613a3886828701613717565b9350506020613a4986828701613717565b9250506040613a5a86828701613662565b9150509250925092565b60008060008060008060006080888a031215613a8357613a826134ca565b5b6000613a918a828b01613831565b975050602088013567ffffffffffffffff811115613ab257613ab16134cf565b5b613abe8a828b01613855565b9650965050604088013567ffffffffffffffff811115613ae157613ae06134cf565b5b613aed8a828b01613855565b9450945050606088013567ffffffffffffffff811115613b1057613b0f6134cf565b5b613b1c8a828b016138ab565b925092505092959891949750929550565b60008060008060608587031215613b4757613b466134ca565b5b600085013567ffffffffffffffff811115613b6557613b646134cf565b5b613b7187828801613855565b94509450506020613b8487828801613717565b9250506040613b9587828801613662565b91505092959194509250565b600060208284031215613bb757613bb66134ca565b5b6000613bc584828501613717565b91505092915050565b6000613bd982613798565b9050919050565b613be981613bce565b82525050565b6000602082019050613c046000830184613be0565b92915050565b613c1381613559565b8114613c1e57600080fd5b50565b600081359050613c3081613c0a565b92915050565b60008060408385031215613c4d57613c4c6134ca565b5b6000613c5b85828601613717565b9250506020613c6c85828601613c21565b9150509250929050565b600080600080600060608688031215613c9257613c916134ca565b5b600086013567ffffffffffffffff811115613cb057613caf6134cf565b5b613cbc88828901613855565b95509550506020613ccf88828901613717565b935050604086013567ffffffffffffffff811115613cf057613cef6134cf565b5b613cfc88828901613855565b92509250509295509295909350565b600080fd5b7f4e487b7100000000000000000000000000000000000000000000000000000000600052604160045260246000fd5b613d48826135d5565b810181811067ffffffffffffffff82111715613d6757613d66613d10565b5b80604052505050565b6000613d7a6134c0565b9050613d868282613d3f565b919050565b600067ffffffffffffffff821115613da657613da5613d10565b5b613daf826135d5565b9050602081019050919050565b82818337600083830152505050565b6000613dde613dd984613d8b565b613d70565b905082815260208101848484011115613dfa57613df9613d0b565b5b613e05848285613dbc565b509392505050565b600082601f830112613e2257613e21613846565b5b8135613e32848260208601613dcb565b91505092915050565b60008060008060808587031215613e5557613e546134ca565b5b6000613e6387828801613717565b9450506020613e7487828801613717565b9350506040613e8587828801613662565b925050606085013567ffffffffffffffff811115613ea657613ea56134cf565b5b613eb287828801613e0d565b91505092959194509250565b60008060408385031215613ed557613ed46134ca565b5b6000613ee385828601613717565b9250506020613ef485828601613717565b9150509250929050565b600067ffffffffffffffff821115613f1957613f18613d10565b5b613f22826135d5565b9050602081019050919050565b6000613f42613f3d84613efe565b613d70565b905082815260208101848484011115613f5e57613f5d613d0b565b5b613f69848285613dbc565b509392505050565b600082601f830112613f8657613f85613846565b5b8135613f96848260208601613f2f565b91505092915050565b60008060408385031215613fb657613fb56134ca565b5b6000613fc485828601613717565b925050602083013567ffffffffffffffff811115613fe557613fe46134cf565b5b613ff185828601613f71565b9150509250929050565b7f4e487b7100000000000000000000000000000000000000000000000000000000600052602260045260246000fd5b6000600282049050600182168061404257607f821691505b60208210810361405557614054613ffb565b5b50919050565b7f4552433732313a20617070726f76616c20746f2063757272656e74206f776e6560008201527f7200000000000000000000000000000000000000000000000000000000000000602082015250565b60006140b760218361359a565b91506140c28261405b565b604082019050919050565b600060208201905081810360008301526140e6816140aa565b9050919050565b7f4552433732313a20617070726f76652063616c6c6572206973206e6f7420746f60008201527f6b656e206f776e6572206f7220617070726f76656420666f7220616c6c000000602082015250565b6000614149603d8361359a565b9150614154826140ed565b604082019050919050565b600060208201905081810360008301526141788161413c565b9050919050565b600081905092915050565b6000614196838561417f565b93506141a3838584613dbc565b82840190509392505050565b60006141bc82848661418a565b91508190509392505050565b6141d181613810565b82525050565b60006141e3838561359a565b93506141f0838584613dbc565b6141f9836135d5565b840190509392505050565b600060c082019050614219600083018c6141c8565b818103602083015261422c818a8c6141d7565b9050818103604083015261424181888a6141d7565b905061425060608301876141c8565b81810360808301526142638185876141d7565b905061427260a08301846137e6565b9a9950505050505050505050565b60008151905061428f81613c0a565b92915050565b6000602082840312156142ab576142aa6134ca565b5b60006142b984828501614280565b91505092915050565b7f4552433732313a2063616c6c6572206973206e6f7420746f6b656e206f776e6560008201527f72206f7220617070726f76656400000000000000000000000000000000000000602082015250565b600061431e602d8361359a565b9150614329826142c2565b604082019050919050565b6000602082019050818103600083015261434d81614311565b9050919050565b7f455243373231456e756d657261626c653a206f776e657220696e646578206f7560008201527f74206f6620626f756e6473000000000000000000000000000000000000000000602082015250565b60006143b0602b8361359a565b91506143bb82614354565b604082019050919050565b600060208201905081810360008301526143df816143a3565b9050919050565b60006080820190506143fb60008301896141c8565b818103602083015261440e8187896141d7565b905081810360408301526144238185876141d7565b905061443260608301846141c8565b979650505050505050565b7f455243373231456e756d657261626c653a20676c6f62616c20696e646578206f60008201527f7574206f6620626f756e64730000000000000000000000000000000000000000602082015250565b6000614499602c8361359a565b91506144a48261443d565b604082019050919050565b600060208201905081810360008301526144c88161448c565b9050919050565b7f4e487b7100000000000000000000000000000000000000000000000000000000600052603260045260246000fd5b600060608201905061451360008301866136d6565b61452060208301856137e6565b818103604083015261453281846135e6565b9050949350505050565b600081519050919050565b600082825260208201905092915050565b60006145638261453c565b61456d8185614547565b935061457d8185602086016135ab565b614586816135d5565b840191505092915050565b600060a0820190506145a660008301896136d6565b81810360208301526145b98187896141d7565b905081810360408301526145cd81866135e6565b905081810360608301526145e18185614558565b90506145f060808301846136d6565b979650505050505050565b600060608201905081810360008301526146168186886141d7565b9050818103602083015261462a81856135e6565b9050818103604083015261463e8184614558565b905095945050505050565b600060208201905081810360008301526146648184866141d7565b90509392505050565b7f4552433732313a20696e76616c696420746f6b656e2049440000000000000000600082015250565b60006146a360188361359a565b91506146ae8261466d565b602082019050919050565b600060208201905081810360008301526146d281614696565b9050919050565b7f4552433732313a2061646472657373207a65726f206973206e6f74206120766160008201527f6c6964206f776e65720000000000000000000000000000000000000000000000602082015250565b600061473560298361359a565b9150614740826146d9565b604082019050919050565b6000602082019050818103600083015261476481614728565b9050919050565b60008190508160005260206000209050919050565b6000815461478d8161402a565b614797818661417f565b945060018216600081146147b257600181146147c7576147fa565b60ff19831686528115158202860193506147fa565b6147d08561476b565b60005b838110156147f2578154818901526001820191506020810190506147d3565b838801955050505b50505092915050565b600061480f8284614780565b915081905092915050565b7f43616e2774206d696e742066726f6d206f757473696465206d696e746572206360008201527f6861696e00000000000000000000000000000000000000000000000000000000602082015250565b600061487660248361359a565b91506148818261481a565b604082019050919050565b600060208201905081810360008301526148a581614869565b9050919050565b60006060820190506148c160008301876136d6565b6148ce60208301866137e6565b81810360408301526148e18184866141d7565b905095945050505050565b7f4e487b7100000000000000000000000000000000000000000000000000000000600052601160045260246000fd5b600061492682613641565b91507fffffffffffffffffffffffffffffffffffffffffffffffffffffffffffffffff8203614958576149576148ec565b5b600182019050919050565b7f4552433732313a207472616e736665722066726f6d20696e636f72726563742060008201527f6f776e6572000000000000000000000000000000000000000000000000000000602082015250565b60006149bf60258361359a565b91506149ca82614963565b604082019050919050565b600060208201905081810360008301526149ee816149b2565b9050919050565b7f4552433732313a207472616e7366657220746f20746865207a65726f2061646460008201527f7265737300000000000000000000000000000000000000000000000000000000602082015250565b6000614a5160248361359a565b9150614a5c826149f5565b604082019050919050565b60006020820190508181036000830152614a8081614a44565b9050919050565b60006040820190508181036000830152614aa28186886141d7565b90508181036020830152614ab78184866141d7565b905095945050505050565b6000614acd826136a4565b9050919050565b614add81614ac2565b8114614ae857600080fd5b50565b600081359050614afa81614ad4565b92915050565b600080600060608486031215614b1957614b186134ca565b5b6000614b2786828701614aeb565b9350506020614b3886828701613662565b925050604084013567ffffffffffffffff811115614b5957614b586134cf565b5b614b6586828701613f71565b9150509250925092565b60008160601b9050919050565b6000614b8782614b6f565b9050919050565b6000614b9982614b7c565b9050919050565b614bb1614bac826136c4565b614b8e565b82525050565b6000614bc38284614ba0565b60148201915081905092915050565b6000614bdd82613641565b9150614be883613641565b9250817fffffffffffffffffffffffffffffffffffffffffffffffffffffffffffffffff0483118215151615614c2157614c206148ec565b5b828202905092915050565b6000614c3782613641565b9150614c4283613641565b9250828201905080821115614c5a57614c596148ec565b5b92915050565b7f4552433732313a20617070726f766520746f2063616c6c657200000000000000600082015250565b6000614c9660198361359a565b9150614ca182614c60565b602082019050919050565b60006020820190508181036000830152614cc581614c89565b9050919050565b7f4552433732313a207472616e7366657220746f206e6f6e20455243373231526560008201527f63656976657220696d706c656d656e7465720000000000000000000000000000602082015250565b6000614d2860328361359a565b9150614d3382614ccc565b604082019050919050565b60006020820190508181036000830152614d5781614d1b565b9050919050565b600081905092915050565b6000614d748261358f565b614d7e8185614d5e565b9350614d8e8185602086016135ab565b80840191505092915050565b6000614da68285614d69565b9150614db28284614d69565b91508190509392505050565b7f45524337323155524953746f726167653a2055524920736574206f66206e6f6e60008201527f6578697374656e7420746f6b656e000000000000000000000000000000000000602082015250565b6000614e1a602e8361359a565b9150614e2582614dbe565b604082019050919050565b60006020820190508181036000830152614e4981614e0d565b9050919050565b60008190508160005260206000209050919050565b60006020601f8301049050919050565b600082821b905092915050565b600060088302614eb27fffffffffffffffffffffffffffffffffffffffffffffffffffffffffffffffff82614e75565b614ebc8683614e75565b95508019841693508086168417925050509392505050565b6000614eef614eea614ee584613641565b61376c565b613641565b9050919050565b6000819050919050565b614f0983614ed4565b614f1d614f1582614ef6565b848454614e82565b825550505050565b600090565b614f32614f25565b614f3d818484614f00565b505050565b5b81811015614f6157614f56600082614f2a565b600181019050614f43565b5050565b601f821115614fa657614f7781614e50565b614f8084614e65565b81016020851015614f8f578190505b614fa3614f9b85614e65565b830182614f42565b50505b505050565b600082821c905092915050565b6000614fc960001984600802614fab565b1980831691505092915050565b6000614fe28383614fb8565b9150826002028217905092915050565b614ffb8261358f565b67ffffffffffffffff81111561501457615013613d10565b5b61501e825461402a565b615029828285614f65565b600060209050601f83116001811461505c576000841561504a578287015190505b6150548582614fd6565b8655506150bc565b601f19841661506a86614e50565b60005b828110156150925784890151825560018201915060208501945060208101905061506d565b868310156150af57848901516150ab601f891682614fb8565b8355505b6001600288020188555050505b505050505050565b600060ff82169050919050565b60006150dc826150c4565b91506150e7836150c4565b9250828203905060ff811115615100576150ff6148ec565b5b92915050565b600061511182613641565b915061511c83613641565b9250828203905081811115615134576151336148ec565b5b92915050565b600060808201905061514f60008301876136d6565b61515c60208301866136d6565b61516960408301856137e6565b818103606083015261517b8184614558565b905095945050505050565b60008151905061519581613500565b92915050565b6000602082840312156151b1576151b06134ca565b5b60006151bf84828501615186565b91505092915050565b7f455243373231456e756d657261626c653a20636f6e736563757469766520747260008201527f616e7366657273206e6f7420737570706f727465640000000000000000000000602082015250565b600061522460358361359a565b915061522f826151c8565b604082019050919050565b6000602082019050818103600083015261525381615217565b9050919050565b7f4e487b7100000000000000000000000000000000000000000000000000000000600052601260045260246000fd5b7f4552433732313a206d696e7420746f20746865207a65726f2061646472657373600082015250565b60006152bf60208361359a565b91506152ca82615289565b602082019050919050565b600060208201905081810360008301526152ee816152b2565b9050919050565b7f4552433732313a20746f6b656e20616c7265616479206d696e74656400000000600082015250565b600061532b601c8361359a565b9150615336826152f5565b602082019050919050565b6000602082019050818103600083015261535a8161531e565b9050919050565b7f4e487b7100000000000000000000000000000000000000000000000000000000600052603160045260246000fdfea2646970667358221220f2ef4f65bcd719faa1a88fce7815107eda49d6f6c6df2958ab6bea8fc761226164736f6c63430008100033",
  "linkReferences": {},
  "deployedLinkReferences": {}
}